:040000000200513277
:03000B000200BC34
:0100130032BA
:01001B0032B2
:0100230032AA
:01002B0032A2
:01003300329A
:01003B003292
:01004300328A
:03004B00020FC1E0
:0900AA00E4F543F544F545F54683
:0300B90002004EF4
:03004E000202BAF1
:1000BC00C0E0C0D074012543F543E43544F544E475
:1000CC003545F545E43546F54643C110D0D0D0E072
:1000DC0032438E80758900758CFE758AC0D28CD2A5
:1000EC00A9D2AF22AF83E582900001F0EFA3F0908C
:1000FC000001E0FEA3E0FF30E70CC3E49EFCE49FAC
:10010C00FD8C828D83228E828F8322900003E4F0FB
:10011C0075820012102DAE82E583C313CE13CEC3AD
:10012C0013CE13CEFFEEB52B06EFB52C028035EEB9
:10013C00C3952BFCEF952CFD8C828D83C007C006DC
:10014C001200F0AC82AD83D006D007C374029C744D
:10015C00808DF063F08095F0500A9000037401F0EC
:10016C008E2B8F2C75820112102DAE82E583C3135A
:10017C00CE13CEC313CE13CEFFEEB52D06EFB52E98
:10018C00028035EEC3952DFCEF952EFD8C828D8370
:10019C00C007C0061200F0AC82AD83D006D007C3F6
:1001AC0074029C74808DF063F08095F0500A90007E
:1001BC00037401F08E2D8F2E75820212102DAE82DB
:1001CC00E583C313CE13CEC313CE13CEFFEEB52FE0
:1001DC0006EFB530028035EEC3952FFCEF9530FD60
:1001EC008C828D83C007C0061200F0AC82AD83D028
:1001FC0006D007C374029C74808DF063F08095F078
:10020C00500A9000037401F08E2F8F307582061205
:10021C00102DAE82E583C313CE13CEC313CE13CEF3
:10022C00FFEEB53106EFB532028035EEC39531FCE9
:10023C00EF9532FD8C828D83C007C0061200F0ACA6
:10024C0082AD83D006D007C374029C74808DF0639A
:10025C00F08095F0500A9000037401F08E318F32CB
:10026C00900003E0F58222E582900004F0E0FF7E2E
:10027C0000C3EE9F501BC2B77582C8C007C00612E0
:10028C000646D2B77582C8120646D006D0070E8035
:10029C00E022AF83E582900005F0EFA3F0C2B690A8
:1002AC000005E0FEA3E08E82120646D2B622900034
:1002BC0007E4F0A3F090000904F0E4A3F090000B25
:1002CC0004F01200DD120615E5C130E71574C7C045
:1002DC00E07418C0E07480C0E01210AE1581158176
:1002EC00158175B10D75B2F243C10753C1DFD2B49C
:1002FC0012011790009775F000120663120710E4B4
:10030C00F523F524F525F526F527F528F529F52A05
:10031C00F522758207120BFA12011790000BE07090
:10032C0003020429852B23852C247522C0900009F7
:10033C00E0FEA3E0FF900007E0FCA3E0FD900007C7
:10034C00EE2CF0EF3DA3F0C3E49E74808FF063F0CD
:10035C008095F05020900007E0FEA3E0FFC3E49EE0
:10036C0074818FF063F08095F0504590000974FF14
:10037C00F0A3F0803B900007E0FEA3E0FF30E730F5
:10038C009000097401F0E4A3F0900007F0A3F09042
:10039C00000BF0F52274D1C0E07418C0E07480C07A
:1003AC00E01210AE1581158115817582021202734F
:1003BC00900009E0FEA3E0FFC3E49E74808FF0631D
:1003CC00F08095F0501BC3E52394FFE524648094E2
:1003DC0080500302050190000974FFF0A3F00205A0
:1003EC0001E523452460030205019000097401F026
:1003FC00E4A3F0900007F0A3F090000BF0F522744A
:10040C00DAC0E07418C0E07480C0E01210AE158140
:10041C0015811581758203120273020501852B2348
:10042C00852C24C3E52D9480E52E64809480500C9B
:10043C00747FC3952DFEE4952EFF8004AE2DAF2E58
:10044C008E258F26C3E52F9480E5306480948050F0
:10045C000C747FC3952FFEE49530FF8004AE2FAF54
:10046C00308E298F2AC3E5319480E53264809480E4
:10047C00500C747FC39531FEE49532FF8004AE318D
:10048C00AF328E278F28900009E0FEA3E0FF90008A
:10049C0007E0FCA3E0FD900007EE2CF0EF3DA3F08D
:1004AC00C3E49E74808FF063F08095F0502B900025
:1004BC0007E0FEA3E0FFC374FF9E74808FF063F02F
:1004CC008095F0503090000974FFF0A3F090000775
:1004DC00F0E4A3F0752210801C900007E0FEA3E06E
:1004EC00FF30E7119000097401F0E4A3F0900007CD
:1004FC00F0A3F0F52220B20343228020CC03432248
:10050C004020CD0343220875820712102DAE82AF16
:10051C0083BEFF09BF03064322060205E78E048F44
:10052C0005C3EC949EED6480948040198E048F0575
:10053C00C3749F9C74808DF063F08095F0400643EB
:10054C0022010205E78E048F05C3EC942FED648025
:10055C00948140198E048F05C374329C74818DF084
:10056C0063F08095F040064322020205E78E048F6B
:10057C0005C3EC94C4ED6480948140188E048F05FF
:10058C00C374C99C74818DF063F08095F040054371
:10059C00220380478E048F05C3EC9463ED64809432
:1005AC008240188E048F05C374699C74828DF0632D
:1005BC00F08095F0400543220480208E048F05C303
:1005CC00EC9419ED648094834011741F9E74838F96
:1005DC00F063F08095F04003432205AF2390002791
:1005EC00E525F0E526A3F0900029E527F0E528A302
:1005FC00F090002BE529F0E52AA3F090002DE522E0
:10060C00F08F821209EC02032475985A75D7DE75A7
:10061C00D6FF758E14438E0122E58290000CF010EB
:0B062C00990280FB90000CE0F5992281
:1018C700574454204F56520D0A00426F756E6431CB
:0C18D7000D0A00426F756E64320D0A00AD
:031942001A3F1138
:1006370075F00874F3D5E0FDD5F0F8D582F222E520
:1006470082900022F0E0F582020637E582900023CF
:10065700F0E0FF00007E02DEFEDFF822AFF0AE839F
:10066700E582900024F0EEA3F0EFA3F0900024E0E1
:10067700FDA3E0FEA3E0FF8D828E838FF01218A703
:10068700FC90000DF074012DF9E43EFA8F03898286
:100697008A838BF01218A7F990000EF074022DFDD3
:1006A700E43EFE8D828E838FF01218A7FD90000F17
:1006B700F0E92C2DFD741E5D0303543FFF74035DA9
:1006C70075F010A4249AFD740035F0FE7B007C00C1
:1006D700EB2DF582EC3EF583E02FFAEB2410F8ECD6
:1006E7003400F9EA540F60048A118005EA24FDF505
:1006F7001188828983E511F00BBB00010CC3EB94D1
:1007070010EC6480948040C822120B4D90005974FD
:100717000CF0758200120C92900059E4F07582017A
:10072700120C92900059743FF0758202120C92904D
:1007370000597403F0758203120C9290005974FFEC
:10074700F0758204120C929000597408F0758205B6
:10075700120C929000597405F0758206120C929053
:1007670000597470F0758207120C92900059E4F0EA
:10077700758208120C92900059E4F0758209120CE8
:100787009290005974C3F075820C120C9290005924
:1007970074C4F075820D120C9290005974C5F075EF
:1007A700820E120C9290005974C6F075820F120CCB
:1007B700929000597410F0758211120C92900059A2
:1007C7007410F0758212120C929000597410F07523
:1007D7008213120C929000597410F0758214120C47
:1007E700929000597410F0758215120C929000596E
:1007F7007410F0758216120C92900059E4F075820D
:1008070017120C9290005474E3F07418A3F07480DC
:10081700A3F09000577405F075820A120C28900017
:100827005474E9F07418A3F07480A3F0900057741F
:1008370005F075820B120C2890005474E3F07418BD
:10084700A3F07480A3F09000577405F0758210121E
:100857000C28758253120E6A758207120BFAE5820D
:1008670020E7030209C574EFC0E07418C0E0748084
:10087700C0E01210AE15811581158190005474F9EE
:10088700F07418A3F07480A3F09000577404F07507
:100897008200120C2890005474FEF07418A3F074B0
:1008A70080A3F09000577404F0758201120C289011
:1008B70000547403F07419A3F07480A3F0900057E8
:1008C7007404F0758202120C289000547408F074B6
:1008D70019A3F07480A3F09000577404F075820395
:1008E700120C28900054740DF07419A3F07480A3AF
:1008F700F09000577404F0758204120C289000548D
:100907007412F07419A3F07480A3F0900057740464
:10091700F0758205120C287F069000547417F07446
:1009270019A3F07480A3F09000577404F08F82C06D
:1009370007120C28D0070FBF0C0040DD900054743D
:100947001CF07419A3F07480A3F09000577404F09E
:1009570075820C120C289000547421F07419A3F0BE
:100967007480A3F09000577404F075820D120C2860
:100977009000547426F07419A3F07480A3F09000CB
:1009870057740BF075820E120C289000547432F0D5
:100997007419A3F07480A3F09000577404F0758263
:1009A70004120C28900054740DF07419A3F074808D
:1009B700A3F09000577404F0758204120C28758216
:1009C70053120E6A758264120646120E4F90005932
:1009D700740EF0758200120C927582961206529070
:1009E7000021E4F022E58290002EF090002DE0FF38
:1009F700BFC01F900031E4F0900032F0900033F058
:100A0700900034F0900035F0900036F0900037F009
:100A1700803B90002EE0900031F0900027E0FDA38E
:100A2700E0900032EDF0900029E0FDA3E090003364
:100A3700EDF090002BE0FDA3E0FE900034EDF09088
:100A470000357440F0900036F0900037F090000DBC
:100A5700E0900038F090000EE0900039F090000F21
:100A6700E0FE90003AF090003BE4F090003CF090FC
:100A7700003DF090003EF090003FEFF090002FE433
:100A8700F07F00EF2431F582E43400F583E0FE9037
:100A9700002FE0FD2EF00FBF0F0040E790002FE082
:100AA700FF900040F0900020E06017758207120B5E
:100AB700FAE58230E5F59000597420F07582071247
:100AC7000C929000207401F0900021E0FFC31324E2
:100AD70010F582E43400F583E0FE900030F09000DA
:100AE70021EF04F0E0FFBF20004005900021E4F073
:100AF700900030E0900059F0758205120C92120EAA
:100B07004F90005B7410F090003175F000120CC527
:060B170075820F02065278
:1018E300668868686800886686868600424B32345C
:1018F3003231210D0A00404B01E200C04B000000D1
:10190300D0FC8C0200F900392100C1969A1B0024F7
:10191300067FA6000000000000001273000046B41A
:1019230080000041100482200808F27DEFFF00C709
:04193300969A1B0065
:10194500271B392824222E36192129141E122D1859
:101955002E332538191218162A1C1F372F23341039
:10196500111A35242818252A322C142736341C1729
:101975002227173934282B1D182A21381026201F15
:100B1D00AF83E58290004AF0EFA3F090004AE0FE2B
:100B2D00A3E04E24FF92B522AF83E58290004CF0F6
:100B3D00EFA3F090004CE0FEA3E04E24FF92B42210
:100B4D009000417401F0900042E4F0900043F09069
:100B5D00004404F0900045E4F090004604F090004D
:100B6D0047F09000487403F0900049E4F090004184
:100B7D0075F000120E8B9000DA7410F09000DBE42B
:100B8D00F022E582900052F0900000120B1D9000B3
:100B9D0052E0FF53071F8F82120FADAF8290004EB0
:100BAD00E0FCA3E0FDA3E0FE900051E0FB8B021BF7
:100BBD00EA602D7582FFC007C006C005C004C003E2
:100BCD00120FADAA82D003D004D005D006D0078C69
:100BDD00828D838EF0EA121049A3AC82AD8380CD55
:100BED00900001C007120B1DD0078F8222E5829065
:100BFD000053F0900000120B1D900053E0FF5307BF
:100C0D001F8F82120FAD7582FF120FADAF82900054
:100C1D0001C007120B1DD0078F8222E5829000586C
:100C2D00F0900000120B1D900058E0FF741F5F4400
:100C3D0020F582120FADAF82900054E0FCA3E0FDD1
:100C4D00A3E0FE900057E0FB8B021BEA602A8C822A
:100C5D008D838EF01218A7FAA3AC82AD838A82C061
:100C6D0007C006C005C004C003120FADD003D004E9
:100C7D00D005D006D00780D0900001C007120B1D03
:100C8D00D0078F8222E58290005AF0900000120B5F
:100C9D001D90005AE0FF741F5F4420F582120FADC6
:100CAD00AF82900059E0F582C007120FAD900001A0
:100CBD00120B1DD0078F8222AFF0AE83E58290001C
:100CCD005CF0EEA3F0EFA3F090005CE0FDA3E0FE7E
:100CDD00A3E0FF90005BE0FC9000DAE0FBC3EC9B2F
:100CED0040027C109000DBE060047B0080057410F6
:100CFD00C39CFB900000C007C006C005C004C00324
:100D0D00120B1D7582A0120FADAA82D003D004D094
:100D1D0005D006D0078C011CE9602E8D828E838F45
:100D2D00F01218A7F9A3AD82AE838982C007C00661
:100D3D00C005C004C003C002120FADD002D003D055
:100D4D0004D005D006D00780CC8B078F061FEE6030
:100D5D0010758200C007C002120FADD002D00780FF
:100D6D00EA900001C002120B1DD0028A8222AFF060
:100D7D00AE83E582900060F0EEA3F0EFA3F090005B
:100D8D0060E0FDA3E0FEA3E0FF90005FE0FC9000BB
:100D9D00DAE0FBC3EC9B40027C109000DBE06004CA
:100DAD007B0080057410C39CFB900000C007C0063B
:100DBD00C005C004C003120B1D758261120FADAAD0
:100DCD0082D003D004D005D006D0078C011CE96079
:100DDD00317582FFC007C006C005C004C003C00244
:100DED00120FADA982D002D003D004D005D006D009
:100DFD00078D828E838FF0E9121049A3AD82AE83E9
:100E0D0080C98B078F061FEE60107582FFC007C06B
:100E1D0002120FADD002D00780EA900001C002127D
:100E2D000B1DD0028A8222900000120B1D7582E2EA
:100E3D00120FADAF82900001C007120B1DD0078FAE
:100E4D008222900000120B1D7582E1120FADAF8250
:100E5D00900001C007120B1DD0078F8222E58290F2
:100E6D000063F0900000120B1D758250120FAD90B3
:0E0E7D000063E0F582120FAD900001020B1D24
:02198500100050
:0600B3007508007509004C
:100E8B00AFF0AE83E582900064F0EEA3F0EFA3F039
:100E9B00900064E0FDA3E0FEA3E0FF74012DFAE4F3
:100EAB003EFB8F048A828B838CF01218A7FABA014F
:100EBB000553CE7F800343CE808D828E838FF012BD
:100ECB0018A7FCBC010543CE40800353CEBF740270
:100EDB002DFAE43EFB8F048A828B838CF01218A7C9
:100EEB00FABA010543CEDF800353CEDF74032DFA2C
:100EFB00E43EFB8F048A828B838CF01218A770055B
:100F0B0053CEEF800343CE1074042DFAE43EFB8FD7
:100F1B00048A828B838CF01218A7FABA010543CE90
:100F2B0008800353CEF774052DFAE43EFB8F048A39
:100F3B00828B838CF01218A7700543CE0480035369
:100F4B00CEFB74062DFAE43EFB8F048A828B838CD6
:100F5B00F01218A7FABA010543AF02800353AFFD95
:100F6B0074FC55CEFC74072DF9E43EFA8F0389828D
:100F7B008A838BF01218A7F97403594CF5CE74F3CE
:100F8B0055A2FC74082DFDE43EFE8D828E838FF0FE
:100F9B001218A74CF5A275CF0043B50243A880D217
:100FAB00AF22E582900067F0E0F5CFE50960FC75B4
:100FBB0009008508822285CF0875090175CDC032DD
:100FCB00E582900068F0E0FF8FF005F0740180027D
:100FDB0025E0D5F0FB429D75BD0075BC8022E582F6
:100FEB00900069F0E0F582121013AF82E4CF25E098
:100FFB00CF33CF25E0CF33FE740355BE7C004207C1
:10100B00EC42068F828E8322E58290006AF0E0FF2D
:10101B0074C84FF5BC00E5BC30E4FB53BCEF85BD99
:10102B008222E58290006BF0E0FFF582C007120F81
:0E103B00CB7582C8120652D0078F82020FE9D1
:06008000E4787FF6D8FDD4
:10005E007945E94400601B7A01901942789775A0A2
:10006E0000E493F2A308B8000205A0D9F4DAF27501
:02007E00A0FFE1
:1010490020F71130F6138883A88220F509F6A883C2
:0B1059007583002280FEF280F5F0227B
:100086007800E84400600A790175A000E4F309D815
:10009600FC7896E84400600C7901900001E4F0A336
:0400A600D8FCD9FAAF
:10106400C010858110120625D01022AFF0AE83E5A2
:101074008290006EF0EEA3F0EFA3F090006EE0FD1E
:10108400A3E0FEA3E0FF90006DE0FC900081E4F09B
:10109400A3F0A3F0900084EDF0EEA3F0EFA3F090A2
:1010A4000087ECF09010640211B6C010858110E541
:1010B4001024FBFF900081E4F0A3F0A3F0E51024DA
:1010C400FBF8900084E6F008E6A3F008E6A3F090AD
:1010D4000087EFF09010641211B6D01022E58290D0
:1010E400007DF0E0FF900073E0C0E0A3E0C0E0A367
:1010F400E0C0E01210FC800D900071E0C0E0A3E0BD
:10110400C0E08F822215811581158190007BE02437
:1011140001F0A3E03400F022E58290007EF0E024A8
:1011240030FF24C6500A74072FFF30000343072002
:101134008F820210E1E58290007FF0E0FFC4540F3B
:10114400F582C00712111CD00753070F8F820211BA
:101154001CE582900080F0900076E0FCA3E0FDA303
:10116400E0FEA3E0FF90007AE0FB75112090008080
:10117400E0F9EB2BFBEF235401F88B024AFBEC2C38
:10118400FCED33FDEE33FEEF33FFC3EB994007EB89
:10119400C399FB430401E51114FA8A1170D4900039
:1011A40076ECF0EDA3F0EEA3F0EFA3F090007AEB71
:1011B400F022AF83E582900088F0EFA3F0900088DE
:1011C400E0FEA3E0FF900071EEF0EFA3F090008149
:1011D400E0FDA3E0FEA3E0FF900073EDF0EEA3F0CA
:1011E400EFA3F090007BE4F0A3F0900084E0FDA373
:1011F400E0FEA3E0FF8D828E838FF01218A7FC908F
:10120400008474012DF0E43EA3F0EFA3F0EC70032E
:10121400021883BC2502800302187BC201C202C2E9
:1012240003C204C205C206C207C20890008AE4F0E1
:1012340090008BF090008C14F0900084E0FDA3E00B
:10124400FEA3E0FF8D828E838FF01218A7FBA3AD5F
:1012540082AE83900084EDF0EEA3F0EFA3F0900053
:101264008EEBF0BB25088B821210E10211EEBB302D
:1012740000403BEB24C6403690008CE0FABAFF1FD6
:10128400C005C006C00790008BE075F00AA42B24AB
:10129400D0F0D007D006D005E070A9D20280A5EA2C
:1012A40075F00AA4FA2B24D090008CF0809690005C
:1012B4008EE0FBBB2E1090008CE0FABAFF86900003
:1012C4008CE4F0021248BB61004010EB2485400B13
:1012D40090008E74DF5BF0D2008002C20090008E1A
:1012E400E0FBBB2002806DBB2B028063BB2D028020
:1012F40059BB42028063BB43028068BB44030215AE
:1013040028BB460302154ABB4803021248BB4903E3
:10131400021528BB4A03021248BB4C028040BB4F53
:1013240003021532BB5003021497BB53028068BBFF
:101334005403021248BB550302153ABB5803021565
:1013440042BB5A0302124802154ED201021248D27D
:1013540003021248D204021248D206021248D207EB
:1013640002124830060F900087E0FF14F9F0900055
:101374008EE7F08016900087E0FF1F1FEFF08F01CB
:1013840087060987071990008EEEF090008EE0F52D
:10139400821210E102155A900087E0FF1F1F1FEF11
:1013A400F08F0187050987060987071919900076C8
:1013B400EDF0EEA3F0EFA3F08D828E838FF0121880
:1013C4008FAE8290008CE0FFBFFF0590008CEEF0A2
:1013D40020012E90008BE0FFC3EE9F502490008BE1
:1013E400EFC39EF0E0FF8F051FED6010758220C0F3
:1013F40007C0061210E1D006D00780EA90008BEFF8
:10140400F090008CE0FFC006900076E0FAA3E0FDC7
:10141400A3E0FE8A828D838EF01218A7F50AD00607
:10142400E50A603E8F051FC374808DF063F08095DC
:10143400F0502FC006850A82C007C0061210E1D002
:1014440006D007900076E0FAA3E0FDA3E0FE0ABA16
:1014540000010D900076EAF0EDA3F0EEA3F0D006C3
:1014640080A420010302155A90008BE0FFC3EE9F75
:10147400400302155A90008BEFC39EF0E0FF8F06E5
:101484001FEE7003021555758220C0071210E1D0BB
:101494000780EB900087E0FE1E1E1EEEF08E018793
:1014A400020987050987061919900076EAF0EDA369
:1014B400F0EEA3F0900078E0FEBE800040089000BB
:1014C4008E7443F08020BE6000400890008E7450FB
:1014D400F08013BE4000400890008E7449F08006EE
:1014E40090008E7458F090008EE0FEF582C00612D3
:1014F40010E175823A1210E17582301210E17582A2
:10150400781210E1D006BE4902800EBE5002800956
:10151400900077E0F582121139900076E0F582129E
:1015240011398032D20590008A740AF08028900024
:101534008A7408F0802090008A740AF08018900061
:101544008A7410F08010D208800C8B821210E18013
:101554000590008BEFF0300874900087E0FF1F1FA8
:101564001F1FEFF08F018703098705098706098785
:1015740007191919900076EBF0EDA3F0EEA3F0EF44
:10158400A3F09000767437F07419A3F07480A3F07C
:10159400900076E0F50BA3E0F50CA3E0F50D7401E3
:1015A400250BFAE4350CFBAF0D900076EAF0EBA3C3
:1015B400F0EFA3F0850B82850C83850DF01218A73C
:1015C400FF70030211EE8F821210E180C390008A33
:1015D400E0F50BE070030211EE300644900087E062
:1015E40014F9F087067D007B007A00900076EEF017
:1015F400EDA3F0EBA3F0EAA3F030050302169890F4
:101604000076E0FAA3E0A3E0A3E07B007D007E0087
:10161400900076EAF0EBA3F0EDA3F0EEA3F0807473
:1016240030072B900087E0FE1E1E1E1EEEF08E017A
:101634008702098703098705098706191919900084
:1016440076EAF0EBA3F0EDA3F0EEA3F08046900071
:1016540087E0FE1E1EEEF08E01870509870619EE4F
:101664003395E0FBFA900076EDF0EEA3F0EBA3F0F7
:10167400EAA3F020051E900076E0FAA3E0FBA3E0C5
:10168400A3E07D007E00900076EAF0EBA3F0EDA3EA
:10169400F0EEA3F030053E900076E0FAA3E0FBA361
:1016A400E0FDA3E0FE30E72B900076E0FAA3E0FB38
:1016B400A3E0FDA3E0FEC3E49AFAE49BFBE49DFDF2
:1016C400E49EFE900076EAF0EBA3F0EDA3F0EEA327
:1016D400F08002C205D209750E94750F00750A00D8
:1016E40090007AE4F0850B821211552009239000B2
:1016F4007AE0C4FA850E82850F83E0FF4202850EEC
:1017040082850F83EAF0150E74FFB50E02150F8063
:101714000C90007AE0FA850E82850F83F0050AB2F8
:1017240009900076E0FAA3E0FBA3E0FEA3E0FFEA61
:101734004B4E4F70AB900095E50EF0E50FA3F09083
:10174400008DE50AF090008BE0700690008B740128
:10175400F0200227200124E50A04FF90008BE0FE1C
:10176400C3EF9E5011758220C007C0061210E1D04D
:1017740006D0071E80EA90008BEEF030050E7582CD
:101784002D1210E190008BE014F0802690008DE083
:10179400602030030E75822B1210E190008BE01450
:1017A400F0800F30040C7582201210E190008BE061
:1017B40014F020012E90008DE0FF90008BE0FE8E4F
:1017C400051EC3EF9D503A3002067B307D00800435
:1017D4007B207D008B82C007C0061210E1D006D0AA
:1017E4000780DC90008BE0FF90008DE0FDC39F50EC
:1017F4000990008BEFC39DF0800C90008BE4F08087
:101804000590008BEEF0900095E0FEA3E0FF9000C1
:101814008DE0FD8D031DEB603EB2092009140EBE60
:1018240000010F8E828F83E0C4540FFB90007AF086
:10183400800E8E828F83E0FB53030F90007AEBF0CF
:1018440090007AE0F582C007C006C00512111CD0D2
:1018540005D006D00780BC2001030211EE90008B56
:10186400E0FF8F061FEE70030211EE758220C007A1
:101874001210E1D00780EB8C821210E10211EE907D
:0B188400007BE0FEA3E08E82F58322D3
:0B1937003C4E4F20464C4F41543E00F8
:10188F00AA82AB831218A76003A380F8C3E5829ADC
:08189F00F582E5839BF583222D
:0D0051007581461218C3E582600302004E5F
:1018A70020F71430F6148883A88220F507E6A8836A
:1018B70075830022E280F7E49322E02275820022FA
:00000001FF
