:040000000200513277
:03000B000200C42C
:0100130032BA
:01001B0032B2
:0100230032AA
:01002B0032A2
:01003300329A
:01003B003292
:01004300328A
:03004B000210C7D9
:1000AA00E4F544F545F546F547F548F549F54AF5C9
:0100BA004BFA
:0300C10002004EEC
:03004E000203AEFC
:1000C400C022C0E0C0F0C082C083C007C006C00523
:1000D400C004C003C002C001C000C0D075D0007409
:1000E400012544F544E43545F545E43546F546E453
:1000F4003547F54743C110E54930E70FC2B6C3E4BD
:100104009548F548E49549F549802BC3E49548742E
:10011400808549F063F08095F0501B154874FFB555
:1001240048021549C3E4954874808549F063F0801A
:1001340095F04002D2B6E54B30E70FC2B7C3E49561
:100144004AF54AE4954BF54B8060C3E4954A7480C4
:10015400854BF063F08095F05050154A74FFB54A12
:1001640002154BC3E4954A7480854BF063F0809587
:10017400F04009D2B7E4F54AF54B802EAE4AE54B80
:10018400A2E713CE13CEA2E713CE13CEFF90006DD9
:100194007402F0E4A3F08E828F8312116AAE82AFF0
:1001A40083EE4FB40100920092B7C28DD0D0D0003C
:1001B400D001D002D003D004D005D006D007D0831C
:1001C400D082D0F0D0E0D02232538E7F5389F075A4
:1001D4008C00758ACBC28DD28CD2A9D2AF22AF83C8
:1001E400E582900001F0EFA3F0900001E0FEA3E0AF
:1001F400FF30E70CC3E49EFCE49FFD8C828D8322D8
:100204008E828F8322900003E4F0758200121133F2
:10021400AE82E583C313CE13CEC313CE13CEFFEE4B
:10022400B52C06EFB52D028035EEC3952CFCEF9569
:100234002DFD8C828D83C007C0061201E2AC82AD15
:1002440083D006D007C374029C74808DF063F08061
:1002540095F0500A9000037401F08E2C8F2D758256
:1002640001121133AE82E583C313CE13CEC313CE72
:1002740013CEFFEEB52E06EFB52F028035EEC395F3
:100284002EFCEF952FFD8C828D83C007C0061201D2
:10029400E2AC82AD83D006D007C374029C74808D17
:1002A400F063F08095F0500A9000037401F08E2EF4
:1002B4008F2F758202121133AE82E583C313CE13DE
:1002C400CEC313CE13CEFFEEB53006EFB5310280A8
:1002D40035EEC39530FCEF9531FD8C828D83C007DC
:1002E400C0061201E2AC82AD83D006D007C374020B
:1002F4009C74808DF063F08095F0500A9000037434
:1003040001F08E308F31758206121133AE82E5838F
:10031400C313CE13CEC313CE13CEFFEEB53206EF06
:10032400B533028035EEC39532FCEF9533FD8C82F4
:100334008D83C007C0061201E2AC82AD83D006D023
:1003440007C374029C74808DF063F08095F0500AAA
:100354009000037401F08E328F33900003E0F58235
:1003640022E582900004F0E075F008A4FFAEF0C32B
:10037400E49FF54AE49EF54B22AF83E582900005A5
:10038400F0EFA3F0900005E0FEA3E0FF9000767488
:1003940032F0E4A3F08E828F83121280AE82AF8398
:1003A400C3E49EF548E49FF54922900007E4F0A3D6
:1003B400F090000904F0E4A3F090000B04F01201A3
:1003C400CD12071BE5C130E71574EEC0E0741BC005
:1003D400E07480C0E01213D515811581158175B1C3
:1003E4000D75B2F243C10753C1DFD2B412020990B2
:1003F40000AA75F000120769120816E4F524F52521
:10040400F526F527F528F529F52AF52BF523758228
:1004140007120D0012020990000BE0700302051D83
:10042400852C24852D257523C0900009E0FEA3E0CA
:10043400FF900007E0FCA3E0FD900007EE2CF0EF36
:100444003DA3F0C3E49E74808FF063F08095F05078
:1004540020900007E0FEA3E0FFC3E49E74818FF0C8
:1004640063F08095F0504590000974FFF0A3F0808C
:100474003B900007E0FEA3E0FF30E73090000974F2
:1004840001F0E4A3F0900007F0A3F090000BF0F566
:100494002374F8C0E0741BC0E07480C0E01213D56C
:1004A400158115811581758203120365900009E099
:1004B400FEA3E0FFC3E49E74808FF063F08095F0A8
:1004C400501BC3E52494FFE5256480948050030207
:1004D40005F590000974FFF0A3F00205F5E5244545
:1004E4002560030205F59000097401F0E4A3F0907F
:1004F4000007F0A3F090000BF0F5237401C0E07442
:100504001CC0E07480C0E01213D5158115811581DB
:100514007582041203650205F5852C24852D25C3F7
:10052400E52E9480E52F64809480500C747FC395ED
:100534002EFEE4952FFF8004AE2EAF2F8E268F273C
:10054400C3E5309480E53164809480500C747FC39B
:100554009530FEE49531FF8004AE30AF318E2A8FA2
:100564002BC3E5329480E53364809480500C747F0F
:10057400C39532FEE49533FF8004AE32AF338E2848
:100584008F29900009E0FEA3E0FF900007E0FCA3A0
:10059400E0FD900007EE2CF0EF3DA3F0C3E49E7461
:1005A400808FF063F08095F0502B900007E0FEA35D
:1005B400E0FFC374FF9E74808FF063F08095F05069
:1005C4003090000974FFF0A3F0900007F0E4A3F06A
:1005D400752310801C900007E0FEA3E0FF30E711B4
:1005E4009000097401F0E4A3F0900007F0A3F0F583
:1005F4002320B20975820112036543238020CC09AC
:1006040075820212036543234020CD099000C8126D
:10061400037D432308758207121133AE82AF83BE74
:10062400FF09BF03064323060206ED8E048F05C3AC
:10063400EC949EED6480948040198E048F05C374FD
:100644009F9C74808DF063F08095F04006432301F5
:100654000206ED8E048F05C3EC942FED6480948123
:1006640040198E048F05C374329C74818DF063F03D
:100674008095F040064323020206ED8E048F05C3E5
:10068400EC94C4ED6480948140188E048F05C37487
:10069400C99C74818DF063F08095F0400543230379
:1006A40080478E048F05C3EC9463ED64809482408C
:1006B400188E048F05C374699C74828DF063F08076
:1006C40095F0400543230480208E048F05C3EC94E9
:1006D40019ED648094834011741F9E74838FF063BA
:1006E400F08095F04003432305AF24900027E526CE
:1006F400F0E527A3F0900029E528F0E529A3F09080
:10070400002BE52AF0E52BA3F090002DE523F08FD4
:1007140082120AF202041875985A75D7DE75D6FF4C
:10072400758E14438E0122E58290000CF01099021C
:0907340080FB90000CE0F5992215
:101BEE00574454204F56520D0A00426F756E6431A1
:0C1BFE000D0A00426F756E64320D0A0083
:031C69001A3F110E
:10073D0075F00874F3D5E0FDD5F0F8D582F222E519
:10074D0082900022F0E0F58202073DE582900023C1
:10075D00F0E0FF00007E02DEFEDFF822AFF0AE8398
:10076D00E582900024F0EEA3F0EFA3F0900024E0DA
:10077D00FDA3E0FEA3E0FF8D828E838FF0121BCED2
:10078D00FC90000DF074012DF9E43EFA8F0389827F
:10079D008A838BF0121BCEF990000EF074022DFDA2
:1007AD00E43EFE8D828E838FF0121BCEFD90000FE6
:1007BD00F0E92C2DFD741E5D0303543FFF74035DA2
:1007CD0075F010A424ADFD740035F0FE7B007C00A7
:1007DD00EB2DF582EC3EF583E02FFAEB2410F8ECCF
:1007ED003400F9EA540F60048A118005EA24FDF5FE
:1007FD001188828983E511F00BBB00010CC3EB94CA
:10080D0010EC6480948040C822120C5390005974EF
:10081D000CF0758200120D98900059E4F07582016C
:10082D00120D98900059743FF0758202120D989038
:10083D0000597403F0758203120D9890005974FFDE
:10084D00F0758204120D989000597408F0758205A8
:10085D00120D989000597405F0758206120D98903E
:10086D0000597470F0758207120D98900059E4F0DC
:10087D00758208120D98900059E4F0758209120DD9
:10088D009890005974C3F075820C120D9890005910
:10089D0074C4F075820D120D9890005974C5F075E1
:1008AD00820E120D9890005974C6F075820F120DBC
:1008BD00989000597410F0758211120D989000598E
:1008CD007410F0758212120D989000597410F07515
:1008DD008213120D989000597410F0758214120D38
:1008ED00989000597410F0758215120D989000595A
:1008FD007410F0758216120D98900059E4F07582FF
:10090D0017120D98900054740AF0741CA3F07480A3
:10091D00A3F09000577405F075820A120D2E900009
:10092D00547410F0741CA3F07480A3F090005774ED
:10093D0005F075820B120D2E900054740AF0741C84
:10094D00A3F07480A3F09000577405F07582101217
:10095D000D2E758253120F70758207120D00E582F0
:10096D0020E703020ACB7416C0E0741CC0E074804B
:10097D00C0E01213D5158115811581900054742096
:10098D00F0741CA3F07480A3F09000577404F075FC
:10099D008200120D2E9000547425F0741CA3F07477
:1009AD0080A3F09000577404F0758201120D2E9003
:1009BD000054742AF0741CA3F07480A3F0900057B7
:1009CD007404F0758202120D2E900054742FF07481
:1009DD001CA3F07480A3F09000577404F07582038B
:1009ED00120D2E9000547434F0741CA3F07480A377
:1009FD00F09000577404F0758204120D2E9000547F
:100A0D007439F0741CA3F07480A3F0900057740433
:100A1D00F0758205120D2E7F06900054743EF07411
:100A2D001CA3F07480A3F09000577404F08F82C063
:100A3D0007120D2ED0070FBF0C0040DD900054742F
:100A4D0043F0741CA3F07480A3F09000577404F06D
:100A5D0075820C120D2E9000547448F0741CA3F086
:100A6D007480A3F09000577404F075820D120D2E52
:100A7D00900054744DF0741CA3F07480A3F090009A
:100A8D0057740BF075820E120D2E9000547459F0A0
:100A9D00741CA3F07480A3F09000577404F0758259
:100AAD0004120D2E9000547434F0741CA3F0748055
:100ABD00A3F09000577404F0758204120D2E758208
:100ACD0053120F7075826412074C120F5590005916
:100ADD00740EF0758200120D98758296120758905B
:100AED000021E4F022E58290002EF090002DE0FF31
:100AFD00BFC01F900031E4F0900032F0900033F051
:100B0D00900034F0900035F0900036F0900037F002
:100B1D00803B90002EE0900031F0900027E0FDA387
:100B2D00E0900032EDF0900029E0FDA3E09000335D
:100B3D00EDF090002BE0FDA3E0FE900034EDF09081
:100B4D0000357440F0900036F0900037F090000DB5
:100B5D00E0900038F090000EE0900039F090000F1A
:100B6D00E0FE90003AF090003BE4F090003CF090F5
:100B7D00003DF090003EF090003FEFF090002FE42C
:100B8D00F07F00EF2431F582E43400F583E0FE9030
:100B9D00002FE0FD2EF00FBF0F0040E790002FE07B
:100BAD00FF900040F0900020E06017758207120D55
:100BBD0000E58230E5F59000597420F0758207123A
:100BCD000D989000207401F0900021E0FFC31324D4
:100BDD0010F582E43400F583E0FE900030F09000D3
:100BED0021EF04F0E0FFBF20004005900021E4F06C
:100BFD00900030E0900059F0758205120D98120F9B
:100C0D005590005B7410F090003175F000120DCB13
:060C1D0075820F0207586A
:101C0A00668868686800886686868600424B323431
:101C1A003231210D0A00404B01E200C04B000000A6
:101C2A00D0FC8C0200F900392100C1969A1B0024CD
:101C3A00067FA6000000000000001273000046B4F0
:101C4A0080000041100482200808F27DEFFF00C7DF
:041C5A00969A1B003B
:101C6C00271B392824222E36192129141E122D182F
:101C7C002E332538191218162A1C1F372F2334100F
:101C8C00111A35242818252A322C142736341C17FF
:101C9C002227173934282B1D182A21381026201FEB
:100C2300AF83E58290004AF0EFA3F090004AE0FE24
:100C3300A3E04E24FF92B522AF83E58290004CF0EF
:100C4300EFA3F090004CE0FEA3E04E24FF92B42209
:100C53009000417401F0900042E4F0900043F09062
:100C6300004404F0900045E4F090004604F0900046
:100C730047F09000487403F0900049E4F09000417D
:100C830075F000120F919000ED7410F09000EEE4F7
:100C9300F022E582900052F0900000120C239000A5
:100CA30052E0FF53071F8F821210B3AF8290004EA2
:100CB300E0FCA3E0FDA3E0FE900051E0FB8B021BF0
:100CC300EA602D7582FFC007C006C005C004C003DB
:100CD3001210B3AA82D003D004D005D006D0078C5B
:100CE300828D838EF0EA12114FA3AC82AD8380CD47
:100CF300900001C007120C23D0078F8222E5829057
:100D03000053F0900000120C23900053E0FF5307B0
:100D13001F8F821210B37582FF1210B3AF8290003F
:100D230001C007120C23D0078F8222E5829000585E
:100D3300F0900000120C23900058E0FF741F5F44F2
:100D430020F5821210B3AF82900054E0FCA3E0FDC3
:100D5300A3E0FE900057E0FB8B021BEA602A8C8223
:100D63008D838EF0121BCEFAA3AC82AD838A82C030
:100D730007C006C005C004C0031210B3D003D004DB
:100D8300D005D006D00780D0900001C007120C23F5
:100D9300D0078F8222E58290005AF0900000120C57
:100DA3002390005AE0FF741F5F4420F5821210B3B2
:100DB300AF82900059E0F582C0071210B390000192
:100DC300120C23D0078F8222AFF0AE83E58290000E
:100DD3005CF0EEA3F0EFA3F090005CE0FDA3E0FE77
:100DE300A3E0FF90005BE0FC9000EDE0FBC3EC9B15
:100DF30040027C109000EEE060047B0080057410DC
:100E0300C39CFB900000C007C006C005C004C0031C
:100E1300120C237582A01210B3AA82D003D004D07F
:100E230005D006D0078C011CE9602E8D828E838F3E
:100E3300F0121BCEF9A3AD82AE838982C007C00630
:100E4300C005C004C003C0021210B3D002D003D047
:100E530004D005D006D00780CC8B078F061FEE6029
:100E630010758200C007C0021210B3D002D00780F1
:100E7300EA900001C002120C23D0028A8222AFF052
:100E8300AE83E582900060F0EEA3F0EFA3F0900054
:100E930060E0FDA3E0FEA3E0FF90005FE0FC9000B4
:100EA300EDE0FBC3EC9B40027C109000EEE060049D
:100EB3007B0080057410C39CFB900000C007C00634
:100EC300C005C004C003120C237582611210B3AABB
:100ED30082D003D004D005D006D0078C011CE96072
:100EE300317582FFC007C006C005C004C003C0023D
:100EF3001210B3A982D002D003D004D005D006D0FB
:100F0300078D828E838FF0E912114FA3AD82AE83DA
:100F130080C98B078F061FEE60107582FFC007C064
:100F2300021210B3D002D00780EA900001C002126F
:100F33000C23D0028A8222900000120C237582E2D5
:100F43001210B3AF82900001C007120C23D0078F99
:100F53008222900000120C237582E11210B3AF823B
:100F6300900001C007120C23D0078F8222E58290E4
:100F73000063F0900000120C237582501210B3909E
:0E0F83000063E0F5821210B3900001020C230F
:021CAC00100026
:0600BB0075080075090044
:100F9100AFF0AE83E582900064F0EEA3F0EFA3F032
:100FA100900064E0FDA3E0FEA3E0FF74012DFAE4EC
:100FB1003EFB8F048A828B838CF0121BCEFABA011E
:100FC1000553CE7F800343CE808D828E838FF012B6
:100FD1001BCEFCBC010543CE40800353CEBF74023F
:100FE1002DFAE43EFB8F048A828B838CF0121BCE98
:100FF100FABA010543CEDF800353CEDF74032DFA25
:10100100E43EFB8F048A828B838CF0121BCE700529
:1010110053CEEF800343CE1074042DFAE43EFB8FD0
:10102100048A828B838CF0121BCEFABA010543CE5F
:1010310008800353CEF774052DFAE43EFB8F048A32
:10104100828B838CF0121BCE700543CE0480035338
:10105100CEFB74062DFAE43EFB8F048A828B838CCF
:10106100F0121BCEFABA010543AF02800353AFFD64
:1010710074FC55CEFC74072DF9E43EFA8F03898286
:101081008A838BF0121BCEF97403594CF5CE74F39D
:1010910055A2FC74082DFDE43EFE8D828E838FF0F7
:1010A100121BCE4CF5A275CF0043B50243A880D2E6
:1010B100AF22E582900067F0E0F5CFE50960FC75AD
:1010C10009008508822285CF0875090175CDC032D6
:1010D100E582900068F0E0FF8FF005F07401800276
:1010E10025E0D5F0FB429D75BD0075BC8022E582EF
:1010F100900069F0E0F582121119AF82E4CF25E08A
:10110100CF33CF25E0CF33FE740355BE7C004207B9
:10111100EC42068F828E8322E58290006AF0E0FF26
:1011210074C84FF5BC00E5BC30E4FB53BCEF85BD92
:101131008222E58290006BF0E0FFF582C007121079
:0E114100D17582C8120758D0078F820210EFB6
:06008000E4787FF6D8FDD4
:10005E007945E94400601B7A01901C6978AA75A065
:10006E0000E493F2A308B8000205A0D9F4DAF27501
:02007E00A0FFE1
:10114F0020F71130F6138883A88220F509F6A883BB
:10115F007583002280FEF280F5F022AF83E5829046
:10116F00006FF0EFA3F090006FE0FEA3E0FF33E419
:10117F0033FD6009C3E49EFBE49FFC80048E038F64
:10118F000490006DE0FEA3E0FF30E709C3E49EF991
:10119F00E49FFA80048E018F02900071E9F0EAA3B8
:1011AF00F08B828C83C0051211D3AE82AF83D00532
:1011BF00ED600CC3E49EFCE49FFD8C828D83228E38
:1011CF00828F8322AF83E582900073F0EFA3F090BC
:1011DF000075E4F0900073E0FEA3E0FF7D00900047
:1011EF0071E0FBA3E0FC235401FA7037ECCB25E050
:1011FF00CB33FC900071EBF0ECA3F0900071E0FBAF
:10120F00A3E0FCC3EE9BEF9C5011ECC313CB13CBAD
:10121F00FC900071EBF0ECA3F080080D900075EDE1
:10122F00F080BB900075E0FF900073E0FDA3E0FE3F
:10123F00900071E0FBA3E0FCC3ED9BEE9C400B9094
:10124F000073EDC39BF0EE9CA3F0900071E0FDA343
:10125F00E0C313CD13CDFE900071EDF0EEA3F08F30
:10126F00061FEE70C3900073E0FEA3E08E82F5833D
:01127F00224C
:100086007800E84400600A790175A000E4F309D815
:10009600FC78A9E84400600C7901900001E4F0A323
:0400A600D8FCD9FAAF
:10128000AF83E582900078F0EFA3F0900078E0FE65
:10129000A3E0FF33E433FD6009C3E49EFBE49FFC5D
:1012A00080048E038F04900076E0FEA3E0FF33E419
:1012B00033FA6009C3E49EF8E49FF980048E008F3E
:1012C0000190007AE8F0E9A3F08B828C83C005C01E
:1012D000021212F1AE82AF83D002D005EA6D600C2B
:1012E000C3E49EFCE49FFD8C828D83228E828F83DB
:1012F00022AF83E58290007CF0EFA3F090007EE4C3
:10130000F0A3F090007AE0FEA3E0FF7D1090007C57
:10131000E0FBA3E0FC339201ECCB25E0CB33FC9067
:10132000007CEBF0ECA3F090007EE0FBA3E0CB258B
:10133000E0CB33FC90007EEBF0ECA3F03001129098
:10134000007EE0FBA3E0FC90007E74014BF0ECA378
:10135000F090007EE0FBA3E0FCC3EB9EEC9F401D01
:1013600090007EEBC39EF0EC9FA3F090007CE0FB2E
:10137000A3E0FC90007C74014BF0ECA3F0DD8E90B8
:10138000007CE0FEA3E08E82F58322C010858110F0
:1013900012072BD01022AFF0AE83E582900081F0CF
:1013A000EEA3F0EFA3F0900081E0FDA3E0FEA3E048
:1013B000FF900080E0FC900094E4F0A3F0A3F09094
:1013C0000097EDF0EEA3F0EFA3F090009AECF09010
:1013D000138B0214DDC010858110E51024FBFF90F3
:1013E0000094E4F0A3F0A3F0E51024FBF89000973C
:1013F000E6F008E6A3F008E6A3F090009AEFF0907C
:10140000138B1214DDD01022E582900090F0E0FFE3
:10141000900086E0C0E0A3E0C0E0A3E0C0E01214CA
:1014200023800D900084E0C0E0A3E0C0E08F822222
:1014300015811581158190008EE02401F0A3E03420
:1014400000F022E582900091F0E02430FF24C650A5
:101450000A74072FFF3002034307208F820214080B
:10146000E582900092F0E0FFC4540FF582C00712AD
:101470001443D00753070F8F82021443E582900074
:1014800093F0900089E0FCA3E0FDA3E0FEA3E0FF61
:1014900090008DE0FB751120900093E0F9EB2BFBA1
:1014A000EF235401F88B024AFBEC2CFCED33FDEEEC
:1014B00033FEEF33FFC3EB994007EBC399FB4304C3
:1014C00001E51114FA8A1170D4900089ECF0EDA3B3
:1014D000F0EEA3F0EFA3F090008DEBF022AF83E5E8
:1014E0008290009BF0EFA3F090009BE0FEA3E0FF52
:1014F000900084EEF0EFA3F0900094E0FDA3E0FEF6
:10150000A3E0FF900086EDF0EEA3F0EFA3F09000D3
:101510008EE4F0A3F0900097E0FDA3E0FEA3E0FFCF
:101520008D828E838FF0121BCEFC90009774012D5C
:10153000F0E43EA3F0EFA3F0EC7003021BAABC257D
:10154000028003021BA2C203C204C205C206C20774
:10155000C208C209C20A90009DE4F090009EF0907B
:10156000009F14F0900097E0FDA3E0FEA3E0FF8D44
:10157000828E838FF0121BCEFBA3AD82AE839000D0
:1015800097EDF0EEA3F0EFA3F09000A1EBF0BB25F8
:10159000088B82121408021515BB3000403BEB2467
:1015A000C6403690009FE0FABAFF1FC005C006C0D3
:1015B0000790009EE075F00AA42B24D0F0D007D04D
:1015C00006D005E070A9D20480A5EA75F00AA4FA55
:1015D0002B24D090009FF080969000A1E0FBBB2EC2
:1015E0001090009FE0FABAFF8690009FE4F0021589
:1015F0006FBB61004010EB2485400B9000A174DFAD
:101600005BF0D2028002C2029000A1E0FBBB20028C
:10161000806DBB2B028063BB2D028059BB420280D0
:1016200063BB43028068BB440302184FBB460302FE
:101630001871BB480302156FBB490302184FBB4A20
:101640000302156FBB4C028040BB4F03021859BB0D
:1016500050030217BEBB53028068BB540302156FD0
:10166000BB5503021861BB5803021869BB5A030239
:10167000156F021875D20302156FD20502156FD2CD
:101680000602156FD20802156FD20902156F3008D5
:101690000F90009AE0FF14F9F09000A1E7F0801697
:1016A00090009AE0FF1F1FEFF08F01870609870760
:1016B000199000A1EEF09000A1E0F582121408024A
:1016C000188190009AE0FF1F1F1FEFF08F01870520
:1016D0000987060987071919900089EDF0EEA3F034
:1016E000EFA3F08D828E838FF0121BB6AE82900036
:1016F0009FE0FFBFFF0590009FEEF020032E9000BB
:101700009EE0FFC3EE9F502490009EEFC39EF0E04A
:10171000FF8F051FED6010758220C007C0061214F0
:1017200008D006D00780EA90009EEFF090009FE07E
:10173000FFC006900089E0FAA3E0FDA3E0FE8A82E4
:101740008D838EF0121BCEF50AD006E50A603E8F1F
:10175000051FC374808DF063F08095F0502FC00694
:10176000850A82C007C006121408D006D007900070
:1017700089E0FAA3E0FDA3E0FE0ABA00010D9000A3
:1017800089EAF0EDA3F0EEA3F0D00680A4200303D5
:1017900002188190009EE0FFC3EE9F400302188173
:1017A00090009EEFC39EF0E0FF8F061FEE700302D5
:1017B000187C758220C007121408D00780EB9000B7
:1017C0009AE0FE1E1E1EEEF08E01870209870509B3
:1017D00087061919900089EAF0EDA3F0EEA3F090C6
:1017E000008BE0FEBE800040089000A17443F080B2
:1017F00020BE600040089000A17450F08013BE40ED
:101800000040089000A17449F080069000A174582F
:10181000F09000A1E0FEF582C00612140875823A2D
:10182000121408758230121408758278121408D0C8
:1018300006BE4902800EBE5002800990008AE0F583
:1018400082121460900089E0F5821214608032D216
:101850000790009D740AF0802890009D7408F08025
:101860002090009D740AF0801890009D7410F08004
:1018700010D20A800C8B82121408800590009EEF13
:10188000F0300A7490009AE0FF1F1F1F1FEFF08FC7
:101890000187030987050987060987071919199020
:1018A0000089EBF0EDA3F0EEA3F0EFA3F090008938
:1018B000745EF0741CA3F07480A3F0900089E0F5CE
:1018C0000BA3E0F50CA3E0F50D7401250BFAE4354C
:1018D0000CFBAF0D900089EAF0EBA3F0EFA3F085CD
:1018E0000B82850C83850DF0121BCEFF7003021551
:1018F000158F8212140880C390009DE0F50BE070F4
:101900000302151530084490009AE014F9F0870698
:101910007D007B007A00900089EEF0EDA3F0EBA350
:10192000F0EAA3F03007030219BF900089E0FAA3A0
:10193000E0A3E0A3E07B007D007E00900089EAF058
:10194000EBA3F0EDA3F0EEA3F0807430092B900030
:101950009AE0FE1E1E1E1EEEF08E0187020987030E
:10196000098705098706191919900089EAF0EBA380
:10197000F0EDA3F0EEA3F0804690009AE0FE1E1E6C
:10198000EEF08E01870509870619EE3395E0FBFA24
:10199000900089EDF0EEA3F0EBA3F0EAA3F02007AE
:1019A0001E900089E0FAA3E0FBA3E0A3E07D007EA7
:1019B00000900089EAF0EBA3F0EDA3F0EEA3F03085
:1019C000073E900089E0FAA3E0FBA3E0FDA3E0FE60
:1019D00030E72B900089E0FAA3E0FBA3E0FDA3E051
:1019E000FEC3E49AFAE49BFBE49DFDE49EFE9000B6
:1019F00089EAF0EBA3F0EDA3F0EEA3F08002C207BA
:101A0000D20B750EA7750F00750A0090008DE4F0DB
:101A1000850B8212147C200B2390008DE0C4FA8584
:101A20000E82850F83E0FF4202850E82850F83EAD6
:101A3000F0150E74FFB50E02150F800C90008DE0AE
:101A4000FA850E82850F83F0050AB20B900089E0BB
:101A5000FAA3E0FBA3E0FEA3E0FFEA4B4E4F70AB1E
:101A60009000A8E50EF0E50FA3F09000A0E50AF0C5
:101A700090009EE0700690009E7401F020042720E4
:101A80000324E50A04FF90009EE0FEC3EF9E501180
:101A9000758220C007C006121408D006D0071E8029
:101AA000EA90009EEEF030070E75822D1214089019
:101AB000009EE014F080269000A0E0602030050E2B
:101AC00075822B12140890009EE014F0800F3006EF
:101AD0000C75822012140890009EE014F020032E52
:101AE0009000A0E0FF90009EE0FE8E051EC3EF9DDB
:101AF000503A3004067B307D0080047B207D008BD3
:101B000082C007C006121408D006D00780DC9000FF
:101B10009EE0FF9000A0E0FDC39F500990009EEF63
:101B2000C39DF0800C90009EE4F0800590009EEE36
:101B3000F09000A8E0FEA3E0FF9000A0E0FD8D0380
:101B40001DEB603EB20B200B140EBE00010F8E8207
:101B50008F83E0C4540FFB90008DF0800E8E828F37
:101B600083E0FB53030F90008DEBF090008DE0F5C8
:101B700082C007C006C005121443D005D006D007A6
:101B800080BC20030302151590009EE0FF8F061F06
:101B9000EE7003021515758220C007121408D007D5
:101BA00080EB8C8212140802151590008EE0FEA3C3
:061BB000E08E82F58322A5
:0B1C5E003C4E4F20464C4F41543E00CE
:101BB600AA82AB83121BCE6003A380F8C3E5829A88
:081BC600F582E5839BF5832203
:0D00510075814B121BEAE582600302004E30
:101BCE0020F71430F6148883A88220F507E6A88340
:101BDE0075830022E280F7E49322E02275820022D0
:00000001FF
